:10000000D8270020992A0000477E0000852A00009A
:10001000852A0000852A0000852A0000852A000024
:10002000000000000000000000000000FD2B0000A8
:10003000852A000000000000952B0000852A0000A2
:10004000592D0000592D0000592D0000592D000098
:10005000592D0000592D0000592D0000592D000088
:10006000592D0000592D0000592D0000592D000078
:10007000592D0000592D0000592D0000592D000068
:10008000592D0000592D0000592D0000592D000058
:10009000592D0000592D0000592D0000592D000048
:1000A000592D0000592D0000592D0000592D000038
:1000B000592D0000592D0000592D0000592D000028
:1000C000592D0000592D0000592D0000592D000018
:1000D000592D0000592D0000592D0000592D000008
:1000E000592D0000592D0000592D0000592D0000F8
:1000F000592D0000592D0000592D0000592D0000E8
:10010000592D0000592D0000592D0000592D0000D7
:10011000592D0000592D0000592D0000592D0000C7
:10012000592D0000592D0000592D0000592D0000B7
:10013000592D0000592D0000592D0000592D0000A7
:10014000592D0000592D0000592D0000592D000097
:04015000592D000025
:1001580081F0004102E000BF83F0004330B54FEA70
:1001680041044FEA430594EA050F08BF90EA020FDD
:100178001FBF54EA000C55EA020C7FEA645C7FEA70
:10018800655C00F0E2804FEA5454D4EB5555B8BF93
:100198006D420CDD2C4480EA020281EA030382EA04
:1001A800000083EA010180EA020281EA0303362D96
:1001B80088BF30BD11F0004F4FEA01314FF4801C69
:1001C8004CEA113102D0404261EB410113F0004F7B
:1001D8004FEA03334CEA133302D0524263EB430332
:1001E80094EA050F00F0A780A4F10104D5F1200ED0
:1001F8000DDB02FA0EFC22FA05F2801841F100012B
:1002080003FA0EF2801843FA05F359410EE0A5F1FE
:1002180020050EF1200E012A03FA0EFC28BF4CF02F
:10022800020C43FA05F3C01851EBE37101F00045E5
:1002380007D54FF0000EDCF1000C7EEB00006EEBF2
:100248000101B1F5801F1BD3B1F5001F0CD349087C
:100258005FEA30004FEA3C0C04F101044FEA4452D3
:1002680012F5800F80F09A80BCF1004F08BF5FEA5A
:10027800500C50F1000041EB045141EA050130BD3A
:100288005FEA4C0C404141EB0101013C28BFB1F54C
:10029800801FE9D291F0000F04BF01460020B1FA97
:1002A80081F308BF2033A3F10B03B3F120020CDA6A
:1002B8000C3208DD02F1140CC2F10C0201FA0CF048
:1002C80021FA02F10CE002F11402D8BFC2F1200CAD
:1002D80001FA02F120FA0CFCDCBF41EA0C01904063
:1002E800E41AA2BF01EB0451294330BD6FEA0404AC
:1002F8001F3C1CDA0C340EDC04F11404C4F1200297
:1003080020FA04F001FA02F340EA030021FA04F3A8
:1003180045EA030130BDC4F10C04C4F1200220FAFF
:1003280002F001FA04F340EA0300294630BD21FA3D
:1003380004F0294630BD94F0000F83F4801306BF03
:1003480081F480110134013D4EE77FEA645C18BFF7
:100358007FEA655C29D094EA050F08BF90EA020F8E
:1003680005D054EA000C04BF1946104630BD91EA86
:10037800030F1EBF0021002030BD5FEA545C05D189
:100388004000494128BF41F0004130BD14F58004C8
:100398003CBF01F5801130BD01F0004545F0FE413C
:1003A80041F470014FF0000030BD7FEA645C1ABF71
:1003B800194610467FEA655C1CBF0B46024650EAA8
:1003C800013406BF52EA033591EA030F41F40021D4
:1003D80030BD00BF90F0000F04BF0021704730B55A
:1003E8004FF4806404F132044FF000054FF000012F
:1003F80050E700BF90F0000F04BF0021704730B5F0
:100408004FF4806404F1320410F0004548BF4042C4
:100418004FF000013EE700BF42004FEAE2014FEA19
:1004280031014FEA02701FBF12F07F4393F07F4FF4
:1004380081F06051704732F07F4208BF704793F0F7
:100448007F4F04BF41F40021704730B54FF460740A
:1004580001F0004521F000411CE700BF50EA01020D
:1004680008BF704730B54FF000050AE050EA0102B6
:1004780008BF704730B511F0004502D5404261EB26
:1004880041014FF4806404F132045FEA915C3FF467
:10049800D8AE4FF003025FEADC0C18BF03325FEA04
:1004A800DC0C18BF033202EBDC02C2F1200300FAB5
:1004B80003FC20FA02F001FA03FE40EA0E0021FADA
:1004C80002F11444BDE600BF70B54FF0FF0C4CF4C8
:1004D800E06C1CEA11541DBF1CEA135594EA0C0F7A
:1004E80095EA0C0F00F0DEF82C4481EA030621EAB5
:1004F8004C5123EA4C5350EA013518BF52EA0335F0
:1005080041F4801143F4801338D0A0FB02CE4FF0A1
:100518000005E1FB02E506F00042E0FB03E54FF0D1
:100528000006E1FB03569CF0000F18BF4EF0010EC9
:10053800A4F1FF04B6F5007F64F5407404D25FEAC5
:100548004E0E6D4146EB060642EAC62141EA555178
:100558004FEAC52040EA5E504FEACE2EB4F1FD0CBA
:1005680088BFBCF5E06F1ED8BEF1004F08BF5FEA38
:10057800500E50F1000041EB045170BD06F00046EA
:1005880046EA010140EA020081EA0301B4EB5C0497
:10059800C2BFD4EB0C0541EA045170BD41F480118F
:1005A8004FF0000E013C00F3AB8014F1360FDEBFB4
:1005B800002001F0004170BDC4F10004203C35DA90
:1005C8000C341BDC04F11404C4F1200500FA05F313
:1005D80020FA04F001FA05F240EA020001F00042B4
:1005E80021F0004110EBD37021FA04F642EB06012A
:1005F8005EEA430E08BF20EAD37070BDC4F10C0454
:10060800C4F1200500FA04F320FA05F001FA04F217
:1006180040EA020001F0004110EBD37041F1000103
:100628005EEA430E08BF20EAD37070BDC4F120050E
:1006380000FA05F24EEA020E20FA04F301FA05F276
:1006480043EA020321FA04F001F0004121FA04F21E
:1006580020EA020000EBD3705EEA430E08BF20EAEE
:10066800D37070BD94F0000F0FD101F00046400028
:1006780041EB010111F4801F08BF013CF7D041EAAA
:10068800060195F0000F18BF704703F000465200AE
:1006980043EB030313F4801F08BF013DF7D043EA7F
:1006A8000603704794EA0C0F0CEA135518BF95EA35
:1006B8000C0F0CD050EA410618BF52EA4306D1D1BC
:1006C80081EA030101F000414FF0000070BD50EADB
:1006D800410606BF1046194652EA430619D094EA65
:1006E8000C0F02D150EA013613D195EA0C0F05D14F
:1006F80052EA03361CBF104619460AD181EA0301A3
:1007080001F0004141F0FE4141F470014FF000005A
:1007180070BD41F0FE4141F4780170BD70B54FF0F5
:10072800FF0C4CF4E06C1CEA11541DBF1CEA135575
:1007380094EA0C0F95EA0C0F00F0A7F8A4EB050457
:1007480081EA030E52EA03354FEA013100F088804E
:100758004FEA03334FF0805545EA131343EA126317
:100768004FEA022245EA111545EA10654FEA0026CC
:100778000EF000419D4208BF964244F1FD0404F585
:10078800407402D25B084FEA3202B61A65EB0305E1
:100798005B084FEA32024FF480104FF4002CB6EB9E
:1007A800020E75EB030E22BFB61A754640EA0C001E
:1007B8005B084FEA3202B6EB020E75EB030E22BF5E
:1007C800B61A754640EA5C005B084FEA3202B6EB9F
:1007D800020E75EB030E22BFB61A754640EA9C005E
:1007E8005B084FEA3202B6EB020E75EB030E22BF2E
:1007F800B61A754640EADC0055EA060E18D04FEAEC
:10080800051545EA16754FEA06164FEAC30343EA8B
:1008180052734FEAC2025FEA1C1CC0D111F4801F58
:100828000BD141EA00014FF000004FF0004CB6E751
:1008380011F4801F04BF01430020B4F1FD0C88BFF0
:10084800BCF5E06F3FF6AFAEB5EB030C04BFB6EBFB
:10085800020C5FEA500C50F1000041EB045170BDEE
:100868000EF0004E4EEA113114EB5C04C2BFD4EB1B
:100878000C0541EA045170BD41F480114FF0000E9F
:10088800013C90E645EA060E8DE60CEA135594EA1B
:100898000C0F08BF95EA0C0F3FF43BAF94EA0C0F1E
:1008A8000AD150EA01347FF434AF95EA0C0F7FF493
:1008B80025AF104619462CE795EA0C0F06D152EAE7
:1008C80003353FF4FDAE1046194622E750EA4106CB
:1008D80018BF52EA43067FF4C5AE50EA41047FF4DC
:1008E8000DAF52EA43057FF4EBAE12E74FEA41023F
:1008F80012F5001215D211D56FF47873B3EB62526A
:1009080012D94FEAC12343F0004343EA505311F090
:10091800004F23FA02F018BF404270474FF0000022
:10092800704750EA013005D111F0004008BF6FF060
:10093800004070474FF00000704700BF53B94AB9F4
:10094800002908BF00281CBF4FF0FF314FF0FF30CF
:1009580000F00CB8ADF1080C6DE904CE00F010F809
:10096800DDF804E0DDE9022304B07047704700BFFA
:10097800034613F8012B002AFBD1181A01387047D7
:100988002DE9F04786468C460846089E154674466B
:100998001946002B40F0C1808542B2FA82F245D94F
:1009A8004AB1C2F1200300FA02FC954094402EFAA5
:1009B80003F343EA0C0C4FEA154EA8B2230CBCFB18
:1009C800FEF80EFB18CC08FB00F943EA0C439945E6
:1009D80028D9EB1808F1FF3704D2994502D9A8F1B4
:1009E80002072B44A3EB0903A4B2B3FBFEFC0EFBE6
:1009F8001C330CFB00F044EA0344A04214D92C1920
:100A08000CF1FF3304D2A04202D9ACF102032C440A
:100A1800241A43EA07401EB1D440002334607360AF
:100A2800BDE8F0874746DDE76346F1E792BB431B25
:100A380001214FEA154EAFB2200CB3FBFEFC0EFBB2
:100A48001C330CFB07F840EA0343984561D9EB18BF
:100A58000CF1FF3004D2984502D9ACF102002B44C6
:100A6800A3EB0803A4B2B3FBFEFC0EFB1C330CFB88
:100A780007F744EA0344A7424DD92C190CF1FF3378
:100A880004D2A74202D9ACF102032C44E41B43EA86
:100A98000040C0E7C2F120039540944020FA03F1DA
:100AA8002EFA03F34FEA154E9040AFB20343B1FB61
:100AB800FEFC0EFB1C10190C0CFB07F841EA004168
:100AC800884522D969180CF1FF3004D2884502D92B
:100AD800ACF102002944A1EB08019BB2B1FBFEFC7A
:100AE8000EFB1C110CFB07F743EA01439F420ED98A
:100AF800EB180CF1FF3104D29F4202D9ACF102018C
:100B08002B44DB1B41EA004193E76046E3E761467B
:100B1800F7E76046A4E76346B8E7834206D916B903
:100B2800002108467CE7C6E900E0F9E7B3FA83F755
:100B38008FB9834201D3724508D8BEEB020460EB3B
:100B4800030301209C461EB9002169E73846FAE7ED
:100B5800C6E9004CF8E7C7F1200CBB400EFA07F5D0
:100B680022FA0CF42EFA0CF1BA401C4320FA0CF3CA
:100B7800B8404FEA144901431FFA84FEB3FBF9F861
:100B880009FB18300B0C08FB0EFA43EA00439A45A0
:100B980040D9E31808F1FF3004D29A4502D9A8F1E8
:100BA80002002344A3EB0A0389B2B3FBF9F809FB5B
:100BB800183308FB0EFE41EA03418E452CD9611813
:100BC80008F1FF3304D28E4502D9A8F1020321446B
:100BD80043EA0040A1EB0E01A0FB02984145CE4636
:100BE800434602D306D14D4504D20138B9EB020E73
:100BF80068EB0403002EA7D0B5EB0E0261EB0301EE
:100C080001FA0CFC22FA07F3F9404CEA0303C6E99F
:100C1800003199E74046C5E74346D9E700000000A0
:100C28002DE9F0471EA7D7E900674FF00008002418
:100C3800DFF874901D4D88B0EC46DFF874A00AF117
:100C4800100EBEE80F00ACE80F009EE80F008CE81D
:100C58000F009AE80F0000F037F84FF0FF324FF01E
:100C6800FF330121134805F0EBFC134807F089FE18
:100C7800124BB3F90000FFF7BDFB42464B46FFF7A6
:100C880023FC32463B46FFF71FFC2B462246FFF764
:100C98001BFCFFF72BFE0A4B1880CDE7AFF3008053
:100CA800CDCCCCCCCCCC0C400000303F00408F40A9
:100CB800880A0020B8000020780A00207613002057
:100CC800741300200000000084B008B50DF1080C72
:100CD8008CE80F009DF834204AB10C9A836805A966
:100CE8009B6898470020BDE8084004B070478368B7
:100CF80005A95B689847B0B90B9BB3F90000FFF7EB
:100D080079FB00220C4BFFF7DFFB09A3D3E9002393
:100D1800FFF7DAFB094B0022FFF7D6FBFFF7E6FDEA
:100D28000A9B1880DEE74FF0FF30DCE7AFF3008066
:100D3800333333333333E33F0000303F00408F40D9
:100D48002DE9F04188B03C4F384607F0F6FA80B1FB
:100D58003A69B9681368384623F0004313600B6892
:100D68004FF420221F219847804638B1334806F0B7
:100D7800A7FB4FF0FF3008B0BDE8F081304D314C93
:100D8800284607F0F9FD304B01211B68A562236056
:100D98002E4B6D4623622E4B2E4A63602389C4E98D
:100DA800041203F0E00343F4807323811423A36146
:100DB8000C2304F110062377626284F82C100FCEFE
:100DC8000FC596E80F0085E80F0094E80F0006F0BD
:100DD80028FA002819DA204806F072FB3B691B68DC
:100DE800002BBB684FF00041ACBFDB681B691248A1
:100DF8009847114CBD684FF0004120466B699847F1
:100E08000021012007F0F6FBF5E7144806F058FB2F
:100E180000220023CDE9062307234FF48062CDE9A1
:100E28000283CDE900880E4B0E49CDF810800E489C
:100E380004F068FED2E700BF948B000040910000E8
:100E4800780A0020880A0020CC00002074130020B3
:100E580000040540761300205B91000072910000A9
:100E6800290C000098130020D80200202DE9F04F2B
:100E780091B0009302F004030293C2F3C20301335A
:100E8800840705460E46DDF868800392059340F016
:100E9800BB81041D30B1072909D86FF01B0011B0C0
:100EA800BDE8F08F01F007063444C6F10806009B40
:100EB8004FF000094FF0040A591E4FF0FF334F4618
:100EC8000193CB465346CDF810900DB1009A22609D
:100ED8000598002800F3E8809848009A824203D3D6
:100EE80097488242C0F0E080039AA4EB050E92076F
:100EF8004FEA9E0000F103810F2F00F2B180002D10
:100F080000F0058107F140020DEB020C019A0CF884
:100F1800200C0CF8102C049801300490E7E07A2893
:100F28005DD84B280ED8472859D829282DD82528E8
:100F380052D054D820287AD02338D0F1000B4BEB6C
:100F4800000B74E04C382E2849D8DFE800F07048D0
:100F5800484848484848484848484B484848484806
:100F680048484859484B4B595959704B6D48704837
:100F7800184B184848827F4B48484B487F00002050
:100F88004FF0000B4FF0040A38E001222A38C0B2B3
:100F980002FA00F010EA0E0F49D110F0625C2FD16E
:100FA80010EA020B43D06046013C5444B4FBFAF407
:100FB8000AFB04F4002D61D0A3EB050CA444B4454E
:100FC8003FF66BAF002868D1042B47D158F8043B93
:100FD8002360042304342AE0019A013A01924FF075
:100FE800000B24E011F8010C6C2834D1002011F812
:100FF800023C83466C2BC5D14FF0080A5346D3E711
:1010080008F1070828F00708073424F00704F8E86F
:1010180002AB35B106982044B0423FF63EAFC4E972
:1010280000AB4FF0000B08344FF0080A534611F894
:10103800010F002878D0BBF1000F7FF470AF25288E
:10104800F5D14FF0010B019B013301934FF0040AD6
:10105800ECE7584694E700208346A5E7082B02D022
:101068006FF015001BE708F1070828F00708F8E8F3
:101078000223C4E9002308230834D8E768B9042BFD
:1010880002D108F10408A4E7082BE9D108F1070800
:1010980028F0070808F10808EDE7059A013A0592D3
:1010A80058F8042B009210E7039A900720D54FF0C8
:1010B800010CA4EB050E4FEA9E00BEF5007FCFD2CF
:1010C8000F2FCDD8F5B107F140020DEB020E019AB2
:1010D800C0B20EF8200C0EF8102CBCF1000F3FF433
:1010E8001AAF60F07F000EF8200C09F101090137F2
:1010F800C5F108024FF6DA7E0434069297E74FF0FE
:10110800000CDAE7BCF1000F01D00136EFE70298D6
:1011180002360028EBD10098CDE90631FFF728FC0C
:10112800DDE906310644E2E7631BB3F5806F97D229
:1011380045B9A6F10804E018B1E600BFEC8A000042
:10114800C49B0000029A9B0828602B709DF8103001
:10115800C2B1EB7085F80290B9F1000F05D00022FA
:1011680008A8C5F1010C97420ED14FF0000AC5F14D
:1011780001030DF1200801930DF1300B574512D1F1
:10118800601B8CE66B70E5E710F8013B190608D583
:101198000CEB040EB64503F07F033FF67EAE04F871
:1011A800013B0132DFE7B9F1000F03D098F90020C5
:1011B800002A17DB029BD3B11AF80B2004F8012B85
:1011C8000022019B18191044B0423FF666AE98F809
:1011D8000000009904F8010B2046039207F0F9FB80
:1011E800039A14440AF1010A08F10108C6E798F8BD
:1011F800002055F822300093029B009845F82230D1
:10120800FFF7B6FB421CDCE76FF00D0047E600BFB6
:101218002DE9F04F97B000AFD7F880B03B62CBF321
:10122800C0030446894690F802A0FA62BB6141B93E
:10123800457800780AEB800020444D4517D8A0EB8C
:101248000409E378FB61BAF1000F02D01BF0010F2B
:1012580016D1FB6953BBFB6A1BB1494620463A6A63
:1012680098474D4628465C37BD46BDE8F08F461C7A
:101278003046FFF77DFB0130304409F10109DCE716
:10128800626823787A62FA6A9900796104EB8301CB
:10129800002A40F001810E464FF000084D4601EB50
:1012A8000A094E454CD101EB0A0610E01BF0020F6B
:1012B800D1D023789A007A61626804EB83017A625C
:1012C800FA6A002A77D14D46904601EB0A061BF0D0
:1012D800050F0CBF02230123FB62FB6906EB430ADF
:1012E8000BF00203BB625645BCD016F8021B16F879
:1012F800013C54F82390994B994502D3984B994552
:1013080036D3BB69002B40D0786A06F0B2F80028C3
:101318003BD0E9468AB06A46924B53617B6AC2E980
:1013280006314FF4007313848F4B42F8103F0023AB
:101338004FF412518D4800F017FD023DCD46D2E71B
:1013480016F8013BF96254F82300FFF711FBD7F8B0
:101358008430F96A01304BB1D7F8883098453EBFE0
:10136800D7F8843023F8180008F10108054498E7F5
:10137800BB6923B1786A06F07CF80028C9D11BF054
:10138800010F05D1FB6AED1AADE7BB6A002BAAD0A5
:101398004846FFF7EDFAD7F8843053B1D7F88830CC
:1013A80098453FBFD7F88420431C22F8183008F12D
:1013B8000108054497E7BAF1000F73D01BF0040643
:1013C80073D0D046002607F1480052463B61B96207
:1013D80007F0FFFAB96A3B6901EB0A02BA62FA69D7
:1013E800F9695200FA60BA6A02EB41023A610BF0FD
:1013F8000202BA603A69B96A8A4258D162781BF027
:10140800020F18BF00217A6208BF4FEA5801B218CC
:101418001BF0010FD2B240F09F801BF0040F14BFE5
:1014280040460020BB616270A070E17020463A6AB5
:101438007969FB6A9847051EFFF614AFBB694146F8
:1014480023707B6A3A6A6370FB6984F802A0E370D0
:1014580007F14800FB6A9847B0F10008C0F2BA806B
:101468007B69A9EB0A01C91AFB683A6AC91AD7E964
:101478000A0398470028C0F2AF804FF0000BA84439
:1014880008EB000507F1380AB34571D300213A6A21
:101498000846FB6A9847E5E656464FF0000807F10C
:1014A800380092E75646D04696E7B04694E7BA6ABF
:1014B80012F8021B12F8015CBA6254F82500274A98
:1014C800904202D3264A90421ED3BA6932B1786A52
:1014D8007B6005F0CEFF7B6800288BD1BA6802BB21
:1014E80008F1280207F1300C08F10100944407F1D3
:1014F800580208F1020852FA80F00CF8101C5FFA42
:1015080088F800F8105C75E7BA693AB1786A7B60C8
:1015180005F0AFFF7B6800287FF46CAF1BF0010F6C
:1015280009D006F1280207F13000711C161806F8D8
:10153800205CCEB25EE71BF0040F3FF45BAF08F10E
:10154800280207F1300008F1010102EB000808F851
:10155800105C5FFA81F84DE7002063E7EC8A000031
:10156800C49B00007B910000040000015C8E000019
:101578001BF80A3054F8239087F83730D7F88430AE
:101588002BB3D7F888309B4521D2D7F8843033F86D
:101598001B8001213A6AFB6A07F137009847002847
:1015A8001ADB0544B8F1000F06D14846FFF7E0F909
:1015B80000F101081FFA88F8414648463A6AFB6A72
:1015C8009847002808DB05440BF1010B5CE74FF056
:1015D8000008DEE7454645E6054643E6014B186048
:1015E800704700BFD000002080B505460E4617465C
:1015F800984604F01FFD034607F06AFA0446DFF830
:101608001890424649F8003039463046A84754F801
:10161800090001F0A5FA00BF080000002DE9F04715
:10162800058B04462807904611D4022905F00705C2
:1016380040F0CC80204606F0B3F978B10138218B10
:10164800042811D8DFE800F0C2106D859500012943
:101658000CBF45F0100545F02005258388F3118857
:10166800BFF36F8FBDE8F08701F0070AAA4500F0C5
:10167800A5800027B9463E46A368002B00F0BC8031
:1016880041F00801218388F31188BFF36F8FA168A7
:10169800002900F0BA800D68002900F0B6803346B2
:1016A80052462046D1F80480C047002D76D02B68DA
:1016B80029461D46F0E701F007035A1F012A1BD8E7
:1016C800002221F00701062B276889B2C4E900220D
:1016D80009D13B4603E0628B013262831B68002B11
:1016E800F9D141F002012046218306F059F900287A
:1016F8007AD041F0200176E0042B0AD121F00701CD
:1017080089B22046218306F04BF910B141F020013F
:101718002183218B01F0070AAA454FD00027B9463B
:10172800AAE7236921F0070141F00601062DD3F845
:10173800009021832DD1B9F1000F3FD041F008016D
:10174800218388F31188BFF36F8F20463949C84732
:1017580029E021F00701236941F0040189B2042D31
:10176800D3F804902183E6D000274FF0040A3E46C0
:1017780082E721F00701236941F0050189B2052DAF
:10178800D3F808902183D6D000274FF0050A3E46AB
:1017980072E700274FF0060A3E466DE72B4687E7BB
:1017A800B9F1000FD1D1EFF31188202383F3128808
:1017B800BFF36F8F238B23F008032383258BEA065F
:1017C8002ED525F01003238305F007056669218BC4
:1017D800002EBFF670AF00232768C4E9003321F05C
:1017E800070141F001012183218B4FF0000901F02D
:1017F800070AAA457FF440AF002F9CD041F00801AA
:10180800218388F31188BFF36F8F002FC8D03D68FC
:10181800394633465246204606F0EEF82F46F4E79E
:10182800AB067FF51BAF25F02003238305F00705E2
:1018380000E700BF2D7A00002DE9F047044607466F
:101848004FF00109DFF8508014B93846BDE8F08739
:1018580094FAA4F5B5FA85F509FA05F32E0108EB13
:1018680005156FEA030A24EA03042B7B002BEBD04F
:1018780058F806301B694BB9464473680422284659
:10188800196807EA0A0700F05BFADDE72846984777
:101898000028D9D1F0E700BFA48E000030B500229F
:1018A80089B00F490F4806F020FF002200230024CA
:1018B800CDE906230E230C4DCDE903344FF44072D5
:1018C8002846CDE90144094B0949009404F01AF966
:1018D8000849284606F0F0FD204609B030BD00BF93
:1018E80001190000E007002058030020ED1B00004C
:1018F800981700202F920000014804F06BB800BF31
:10190800C00200202DE9F04780461F480F4606F028
:1019180042F90646002830D000252846BDE8F08761
:10192800237B6BB12368DB680BB12046984723689B
:101938001B69D3B9636804222046196800F000FACD
:10194800013610344C45EBD3B8F1000FE5D0002D2B
:10195800E2D02846FFF770FF0546002FF7D0002198
:101968004FF4A47006F046FEF1E720469847002899
:10197800E0D00AFA06F31D43E2E705464FF0010AF4
:10198800024CDFF80C90DDE7C80A0020A48E0000A6
:10199800B48E0000014B53F820007047EC8E000015
:1019A80008B5034608462BB1044A136000F072FCE0
:1019B800002008BD6FF01500FBE700BFD400002031
:1019C80010B5044C237813B9034804F003F8012335
:1019D800237010BD8A130020C002002010B50446F1
:1019E800094806F0D8F83CB1084BD3E8EF1F013995
:1019F800C3E8E21F002AF8D1054806F082FEBDE8D8
:101A08001040044803F0E6BFC00A0020C40A0020C2
:101A1800E0070020C002002000200146034BD3E865
:101A2800EF0FC3E8E21F002AF9D17047C00A00206F
:101A380070B5FFF7F1FF0546074C084EB44200D3D6
:101A480070BD63685B792BB123685B6813B1294665
:101A5800204698471034F1E7A48E0000B48E0000A9
:101A680010B5044C0449204605F033FE034B1C60B6
:101A780010BD00BF2C020020D88E0000B80A00203C
:101A880008B50023074A4FF400411370064A074877
:101A98001360074A1360FFF783FFBDE80840FFF7AC
:101AA800DFBF00BF8B130020C00A00209B7B000013
:101AB800C40A0020014600220023014805F02ABE7E
:101AC8002C020020014805F0C3BE00BF2C020020F4
:101AD800024B0146186805F00FBF00BFB80A002086
:101AE800014805F044BF00BF2C02002070B5264B0A
:101AF8001878002847D0FFF7E5FF054670B1234B5B
:101B0800D3E8EF1F0139C3E8E21F002AF8D1204CBF
:101B1800204EB4422DD32846FFF7DAFF1E4B1F4C48
:101B28001B68002B19DD06F0DEFD4FF47A72A0FB6E
:101B3800020302FB0131C30B43EA4143D4E900200D
:101B48009B1A40F2E9324FEAD13161EB000193422E
:101B580071F1000101D3FFF76BFFD4E9003213F5EF
:101B68007A7342F10002C4E90032BDE87040FFF721
:101B7800B7BF63685B7923B12368294620461B6891
:101B880098471034C5E770BD8A130020C40A0020A6
:101B9800A48E0000B48E0000C00A0020D8070020E0
:101BA80070B50D4D297861B90120FFF7ABFE0B4CDC
:101BB8000B4EB44206D3FFF799FF0028FBD101234F
:101BC8002B7070BD63685B791BB1236820469B68E6
:101BD80098471034EDE700BF8B130020A48E000057
:101BE800B48E000000212DE9F0470846FFF78AFE71
:101BF800044658B340F267684FF0000906F068FFE2
:101C08001B4B1C4A1B58136033B11B4B1B68092B19
:101C180002DD1A4803F0DEFE0025194FDFF85CA04C
:101C280044B12046FFF708FE044618B94FF0FF38C4
:101C38004FF0FF39FFF75AFF064628B9B5B94246B3
:101C48004B46504603F0FAFE3546E9E74FF0FF38B9
:101C58004FF0FF39D2E72B689B691BB10022284659
:101C6800114698471035BD42F5D3E8E7054DFAE728
:101C780008000000BC0A0020C40A0020C00200209E
:101C8800B48E0000A48E000013B5184805F083FF39
:101C9800174B1B7873B1EFF31184202383F3128859
:101CA800BFF36F8FFFF722FF84F31188BFF36F8FA5
:101CB80002B010BD0F4B1B68002BF9D050B90022A1
:101CC80000230D48CDE900234FF40042002304F01F
:101CD8007DFCEDE70928EBD1074806F012FD07481F
:101CE80002B0BDE8104003F075BE00BFC40A002072
:101CF8008B130020BC0A0020E0070020C00200204F
:101D080010B5064B04461B6898472146A060044856
:101D180005F07FFDBDE81040FFF7B6BFD4000020F6
:101D28002C020020044A054B9B1AB1EBD30F34BF99
:101D380052F8310000207047548E0000A48E000035
:101D4800084B10B4C31A44681B110133237143684C
:101D58009A7101224368196043685A7110BCFFF7F1
:101D68002FBE00BFA48E00002DE9F04F8FB0C1F345
:101D78004A2804AF0D469146B8607B600C0DB8F157
:101D8800000F63D000264FF0040B4FF00A0A07F14A
:101D98001403C7F80C80C7E907667E620193CDF883
:101DA80008B0CDF800A007F11C0332464846F96890
:101DB800FFF72EFAB0F5006F03461CD36C468AB0C5
:101DC800D9F8041004AB26481A46C3E9050140F2C5
:101DD800FF71D9614FF400711984224B42F8103F0A
:101DE8004FF4125133462048FFF7BEFFA5462C3763
:101DF800BD46BDE8F08FC0F30A0804F11700184487
:101E080020F0070080083B60FFF754FE68F3532575
:101E1800044690B13B6800F11001C7E9083607F1A4
:101E28001403F961CDE900A3CDF808B048460F4A7C
:101E3800F96807F11C03FFF7EBF968F353252A4605
:101E480020467B68B96805F0D8FED0E704F1170092
:101E580020F007008008FFF72DFE0446EDE700BFDD
:101E680044920000040000016C8E0000D77B000043
:101E78002DE9F04F87B00446DDE9105ADDE9127903
:101E8800934698460391BFB13B4652461021002025
:101E9800CDF80090CDF81490FEF7E8FFB0F5006F8C
:101EA80006460AD340F2FF730221174A174807B0C3
:101EB800BDE8F04F05F0FABE3E4605F11700304484
:101EC80020F007008008FFF7F5FD04F007040BF089
:101ED800070BE40044EA8B1444EA462444EA055418
:101EE800054640B13FB13B4652463146CDF80090D9
:101EF8001030FEF7BBFF434622462846039907B039
:101F0800BDE8F04F05F079BE839200006C8E0000AA
:101F1800406820B1034BC01A40F3CF0070474FF020
:101F2800FF307047548E00000EB403B503AB53F86E
:101F3800042B01460448019301F02AF902B05DF828
:101F480004EB03B0704700BF177D0000CA0605D434
:101F58008B064CBF02490349FFF7E6BF704700BF35
:101F680079910000789100002DE9F04F89B09B46E7
:101F7800149B9DF84CA00693159B04460593169B4D
:101F88000D469046179E0493BAF1000F00F09D800D
:101F980006F48073079305F018FE06F0020902465E
:101FA80000283ED020469149FFF7BEFF0746B9F109
:101FB800000F08D016F0440F35D12A4620468C4928
:101FC800FFF7B2FF074406F0010353B1894B2046DF
:101FD80053F82A20884B8949002A08BF1A46FFF778
:101FE800A3FF06F48073002B49D006F00803002BEA
:101FF80063D1B8F1000F66D0424620468049FFF70A
:1020080093FF0546069B3D44002B6DD1049B002B96
:1020180073D1F30700F1E48031462046FFF796FFBD
:10202800D8E00746C3E7774B18680028CAD0764B34
:102038004FF47A791B684FF03C0CB5FBF3F5B5FB10
:10204800F0F14FF4616300FB115509FB05F5B1FB95
:10205800F3F2B5FBF0FE03FB121100FB1E55B1FBBA
:10206800FCF309FB05F5B5FBF0F50CFB1311204655
:102078000091CDE901E56549FFF756FFA2E706F0B3
:102088000803EBB1624B204653F82A206149FFF759
:102098004BFF0546B8F1000F05D042462046584987
:1020A800FFF742FF0544BBF1000FABD05A4620466C
:1020B8005949FFF739FF0544A4E74FF0000BE1E762
:1020C80006F00805E6E745469CE7BBF1010F069BCD
:1020D80006D1002B64D1049B002B7BD000250CE09B
:1020E800002BF8D04D485CE04D48069B22464D49F0
:1020F80005F08EF9049B002B68D0DFF82C81DFF8FF
:102108002C91049F3146102F204628BF10274FF0EE
:10211800000BFFF71BFF5D4545DC059B4946204644
:102128001A78FFF701FF4FF0010B1BF0070F03D1DF
:1021380041462046FFF7F8FE5F453BD9059B4946D7
:10214800204613F80B20FFF7EFFE0BF1010BBBF154
:10215800100FEAD14FF0000B20463549FFF7E4FE97
:102168005A46059B20469A5CA2F120015F2928BFA8
:102178002E223049FFF7D8FE0BF1010BBBF1100FEF
:102188001DD01BF0070F03D141462046FFF7CCFEB8
:102198005F455A46E5D841462046FFF7C5FEEBE7BE
:1021A8001F485546A1E741462046FFF7BDFE0BF103
:1021B800010BB0E720462049FFF7B6FEC5E7059BAF
:1021C8003B440593049BDB1B04939AD1BAF1000F9F
:1021D8007FF41FAF204609B0BDE8F04F05F08ABD77
:1021E8002046054A0549FFF79FFE15E7C092000003
:1021F800C4920000FC8E0000BB920000E99200002F
:10220800EC920000D00A0020CC0A0020CD920000F9
:10221800108F0000F0920000F6920000457D00004B
:10222800177D00009931000003930000FB92000025
:1022380005930000079300000193000042F20F731A
:1022480073B58B4228BF0B460568044605216846CE
:102258000D4A04F05FFD0646636828460B225B685A
:102268000A4905F039FD63683246694628465B68C5
:1022780005F032FD63681B2228465B68044905F0B7
:102288002BFD02B070BD00BFCD9400002693000066
:102298000A93000000210123064A904206D8064A04
:1022A80001B901231360054B1860704701214008EC
:1022B8005B00F2E740420F00CC0A0020D00A002061
:1022C800F8B50D460446064F4618B44201D12846D3
:1022D800F8BD14F8011BBB6801485B689847F4E730
:1022E800A88B0000014B036000207047588F000046
:1022F80008B5044805F0E4F8BDE80840024805F0D0
:10230800DFB800BF6C930000A1930000014804F0FF
:10231800BFBB00BF588F000038B5044618B90F4B33
:102328000F485B6898476168B1F5683F10D0B1F510
:10233800680F0DD00B4DA9420AD011F468612068CE
:1023480007D00146084806F050F80023236065606E
:1023580038BD142206F04AFBF9E700BFC00100208F
:10236800CF9300002C5F5CA90010002008B560B373
:102378004368B3F5683F0ED0B3F5680F18D0144A18
:10238800934220D000684FF0FF324FF0FF3303F044
:1023980059FA58B115E001220368D3E8EF1F002964
:1023A80003D1C3E8E02F0028F7D10AD1002008BDE7
:1023B8000368084A1B7803F5807352F82330002B12
:1023C800F4D00548F3E70548F1E76FF4E040EEE79D
:1023D8002C5F5CA900000350E98FFFFFEA8FFFFF25
:1023E80008B520B34368B3F5683F09D0B3F5680F63
:1023F80013D0114A93421DD0006803F09BFA14E0F1
:1024080000220368D3E8EF1F012903D1C3E8E02FB6
:102418000028F7D109D0094808BD00210368084AF7
:102428001B7803F5807342F823100020F4E76FF45B
:10243800E040F1E70348EFE72C5F5CA9E98FFFFF75
:1024480000000350EA8FFFFF10B5044618B91D4B72
:102458001D485B6898476368B3F5683F2FD0B3F5AC
:10246800680F2CD0194A934219D1236803BB4FF047
:10247800FF324FF0FF332146154803F0B5F908B98C
:1024880023681BB90F4B13485B6898471422002137
:10249800206806F0ABFA4FF46863636008E0B3F5B0
:1024A800683F0DD83A2B03D040F6BA629342DED18A
:1024B800206805F0E4FF636843F03A03636010BDE9
:1024C800054AF3E7C0010020CF9300002C5F5CA908
:1024D80000100020F59300003A00003A08B50649BC
:1024E80040231422054805F072FFBDE8084004495E
:1024F800044804F03FBB00BF000B00200010002080
:10250800608F0000748F00002DE9F04706460C46E6
:1025180000AF002936D0D1E90012E9468AB06D46ED
:10252800A3684FF0050AA8461F48C5E90723C5E96F
:10253800050148F810AF002342464FF421511B48CB
:10254800FFF712FCD4E90312CD466369AD4618487B
:10255800C5E90723C5E90501C5F810A000234246CF
:102568004FF421511148FFF7FFFBCD46E3690121E4
:10257800104A0E4805F09AFBA36901210E4A0B4840
:1025880005F094FB012E07D1EFF305830B4A314682
:102598000648103B05F08AFB2146304602F076FFDC
:1025A800BD46BDE8F08700BF229400008C8E000075
:1025B80051940000809400008F940000BD940000A6
:1025C80030BFFFF7FDBF00BF2DE9F04105460B4EB8
:1025D800DFF82C80324606EB0807CC1B2046094959
:1025E80006F0F7F9A01942460021083C06F0FEF96A
:1025F8006C6707F10800BDE8F08100BF000000002B
:1026080004000000B48E0000074A936893F90E1086
:10261800002907DB526993421FBF044A536843F0FD
:1026280080535360704700BF6411002000ED00E044
:1026380070B52A4C06460D4629482A4905F006FC7D
:10264800A36ADB0647D52648274905F0FFFB11207A
:10265800A36A1C0704D52248244905F0F7FB122079
:102668001E4CA36A990712D521491D4805F0EEFBB7
:10267800636BA26A120609D501211E4A184805F0A3
:1026880015FB1EB1A36A23F08003A3621320134C29
:10269800A36ADE0704D51248174905F0D7FB1420B2
:1026A800A36A9C0604D50E48144905F0CFFB1520F3
:1026B8000A4B9A6AD10658BF9A6A9A6A920642BF2A
:1026C8005A6A22F400525A629A6A42F0FF029A62E7
:1026D80000232B7070BD1020BAE700BF00ED00E0AA
:1026E8008C8E0000D0940000E6940000199500003C
:1026F8002C950000449500005A950000799500003B
:1027080010B5244C2449254805F0A0FBA36A99017B
:102718003ED52248224905F099FB1E20A36ADA011A
:1027280004D51E481F4905F091FB1F20194CA36AC8
:10273800DB0204D519481C4905F088FB0220A36A6E
:102748001C0304D51548194905F080FB2120114CBC
:10275800A36A590304D51148154905F077FB2220CF
:10276800A36A9A0304D50D48124905F06FFB23208C
:10277800084CA36ADB0304D508480F4905F066FB3B
:102788002420A36A6FEA03436FEA1343A36210BDD0
:102798001D20C3E700ED00E0A89500008C8E000026
:1027A800C0950000D3950000ED9500001796000035
:1027B800359600005A9600007496000070B5294CB2
:1027C80006460D462848294905F040FBA36AD90466
:1027D8003CD52548264905F039FB1720A36A1A0578
:1027E80004D52148234905F031FB18201D4CA36A64
:1027F8009B0512D51C48204905F028FBA36BA26A4B
:10280800100409D501211D4A174805F04FFA1EB1D9
:10281800A36A23F40043A3621920124CA36A590542
:1028280004D51148164905F011FB1A20A36ADA05E8
:102838000ED50D48134905F009FB1B20094A936A78
:1028480043F47F43936200232B7070BD1620C5E7C5
:10285800A36A9B04F2D504480B4905F0F7FA1C203B
:10286800ECE700BF00ED00E08C8E00009F960000B2
:10287800B596000019950000C6960000DF96000086
:10288800F49600000F970000799500002DE9F041BB
:102898008AB0654B0446D3F80480002600AFC8F31D
:1028A800080586F31188BFF36F8F02F07F43B3F1F9
:1028B8007F4F07D102F00C03082B12D15B495C480B
:1028C80005F0C4FA002634460023FB71EB1E092BE1
:1028D80000F28980DFE803F00A7F827B8787878799
:1028E800878510074CBF0C460126EDE75149504833
:1028F80005F0ACFA00234C4DFB71EB6A9A0705D53D
:102908004D494B4805F0A2FA002331E0EB6A002B51
:1029180001DA4A49F5E7EB6A5B00F5D548494448CE
:1029280005F094FA6B69A26943F480736B61BFF395
:102938004F8FBFF36F8F6B6932F8022C23F48073CB
:102948006B61BFF34F8FBFF36F8F4DF602739A42DF
:1029580007D0AB6ADBB26BB30120F91DFFF768FE45
:1029680037E023680121374A314805F09FF9236889
:10297800FA79DAB907F1080504F1200C2A4620682B
:102988006168083403C264451546F7D17A6A002E97
:1029980045D0C2F3080121B96FEA52226FEA4222F8
:1029A8007A62184607F10801FFF7AEFD2837BD46E1
:1029B800BDE8F081AB6A13F47F4F04D00120F91D04
:1029C800FFF7FCFE05E0AB6AB3F5803F9CD3FFF749
:1029D80097FE0346CCE70020F91DBFE70020F91D4C
:1029E800EEE719498DE7194A18F4F87FE8468AB0E6
:1029F800174B18BF13466A461649103DC2E905131E
:102A08004FF400731384144BD56142F8103F002330
:102A18004FF411510648FFF7A7F9C54674E722F4A9
:102A2800FF7222F00102BBE700ED00E055970000BD
:102A38008C8E00008097000097970000B8970000E0
:102A4800C6970000E5970000019800003C97000039
:102A5800279700002598000004000001064B5A69DA
:102A680042F010025A615A6942F480625A615A6906
:102A780022F008025A61704700ED00E0EFF3088089
:102A8800EFF3098101B57246FFF700FF01BD00BFF2
:102A9800002080F31488BFF36F8F002080F30A882A
:102AA80080F30B880F4880F3088801F079FE002036
:102AB8000D490860BFF34F8F00F02CF8202080F3F9
:102AC80011880A484FF40061401880F30988EFF331
:102AD80014800221084380F31488BFF36F8F00F03D
:102AE800CDF80000D827002094ED00E0981A0020C7
:102AF800002318460649D1F89020C2F307229342D2
:102B080000DB7047C1F89830C1F8A0000133F6E740
:102B180000ED00E010B572B6002484F31388FFF7C7
:102B2800E7FF23464FF0FF300C4A03F12001013341
:102B3800102B42F82100F8D100234FF0FF30074A4C
:102B480003F160010133102B42F82100F8D162B67D
:102B5800BFF34F8FBFF36F8F10BD00BF00E100E0E0
:102B6800084B9B6883420BD1EFF3058343B1064BB7
:102B78005A6842F080525A605A6A22F400425A62F5
:102B880003F05EBA6411002000ED00E016498A687F
:102B98004FF030001044EFF3098C80E8F01F20203C
:102BA80080F31288BFF36F8F104F4FF000664A69A9
:102BB8008A603E604FF07404141920680C4C206041
:102BC800906F0023936780F3118802F1300090E83A
:102BD800F01F8CF3098802F1000004B505F03EF9F6
:102BE800BDE80440704700006411002004ED00E0D7
:102BF8001C1000201EF0040F0CBFEFF30880EFF349
:102C08000980816911F8021C0229FFD001B57246BA
:102C180005F011F901BD00BF40B2002807DB012310
:102C28004109034A00F01F00834042F821307047F1
:102C380000E100E0054B420953F82220012300F08F
:102C48001F0003FA00F01040704700BF00E100E0E9
:102C580040B2002801F10101ACBF00F16040064B11
:102C68004FEA4111C9B2ABBF00F5614000F00F0057
:102C780080F800131954704714ED00E00B4A08B5AA
:102C88000B4B22F07F029A60BFF34F8FBFF36F8F19
:102C9800D3F8882022F47002C3F8882002F0E2FCFE
:102CA80003F0EEFA00F048F802F01CFD0000000006
:102CB80000ED00E042F8203C009B0B4942F81C3C28
:102CC800019B21F0010142F8183C029B42F8081CC4
:102CD80042F8143C4FF0807342F8043C0023203A39
:102CE80002658367704700BFF115000000B50B4B04
:102CF80015469860426F0A4B0E461A60436E83F37E
:102D08000B882C4686F309880020064B98472046F6
:102D1800002100220023044C204700BF641100203A
:102D28001C1000206D7E0000F11500001022014BE0
:102D38001A61704700ED00E0002320210348C21803
:102D48000133452B82F80013F9D1704700E100E008
:102D580008B5EFF30583064A103B02EBC30152F8AE
:102D6800330049688847BDE80840FFF74DBC00BFFD
:102D7800D08B00001FB5094C094A23460121094898
:102D880000F012F900230393074B0121E41A01A86C
:102D98000193029400F012F904B010BD000007205E
:102DA80000000020848F0000D802002010B50C7AA3
:102DB8000B6804F01F0223F01F031A43CB68640951
:102DC80023F01F03054943EA440343F00103C1F814
:102DD8009800C1F89C20C1F8A03010BD00ED00E0BB
:102DE80010B50A4BD3F89030C3F30723013B984240
:102DF80008D901210346064A064804F057FF6FF038
:102E0800150010BDFFF7D2FFFBE700BF00ED00E0A3
:102E18003C980000848E00002DE9F04F8946144646
:102E280006464FF00008514D85B0C84527DAD6F858
:102E380004A0BAF1000F44D0BAF11F0F17D91AF045
:102E48001F0F14D1D6F800B01BF01F0F0FD1584632
:102E580005F044F807460AEB0B00013805F03EF888
:102E6800874210D06FF01507414A3B4601E04346C0
:102E7800404A0121404804F019FF6FF0150420462C
:102E880005B0BDE8F08F17F1160FEDD0BC42EBDDB1
:102E9800C5F89870D5F89C10C5F89870D5F8A0308A
:102EA80021F01F0143F01F0BD6E900321A44994262
:102EB80002F1FF3A1DD1D34507D13146F8B205F0EA
:102EC80016F808F101080C36AFE73146C5F89870D6
:102ED800D5F89C3022F01F0203F01F031343C5F8F6
:102EE8009C30E0B205F003F810F1160FC5D0441C71
:102EF800E7E7C5F89870D5F8A020013B23F01F0339
:102F080002F01F021343D3453146E0B2C5F8A030A2
:102F1800E8D004F0ECFF10F1160FAED0C5F89870A9
:102F2800D5F89C209DF808300BF1FF3B62F30403B1
:102F38008DF80830D5F8A0309DF808205B0863F3B9
:102F480047128DF80820D6E900321344009323F085
:102F58001F035B44A3EB0A03013023F01F036946F8
:102F6800C0B20393FFF73CFFBEE700BF00ED00E0EF
:102F78008598000062980000848E00000522044BAA
:102F8800C3F89420BFF34F8FBFF36F8F704700BF14
:102F980000ED00E0BFF35F8F0022024BC3F89420DE
:102FA800704700BF00ED00E010B5034C2278FFF732
:102FB80033FF207010BD00BF8D1300202DE9F74F9F
:102FC800294D8A4606464FF00008AB46274FD045A4
:102FD8001BDAD6F80490B9F1000F3FD031680846E3
:102FE800019104F07BFF0199044609EB01000138C7
:102FF80004F074FF84424FF014021D4B08D002FB0A
:1030080008F36FF015024BF8032003B0BDE8F08F0A
:1030180014F1160F2C60F8D01978A142F5DD02FBE7
:1030280008B0C7F89840C7F89840D7F89C4000F116
:103038000801007B64F304000871D7F8A0000C793C
:10304800400860F347140C71D7F89C1021F01F0159
:103058006960D7F8A01021F01F01296108F1010863
:1030680014350C36B3E700BF2010002000ED00E057
:103078008D130020F0B54149414CD1F890302568B6
:10308800C3F307239D4287B075D80020FFF782FF5E
:103098003C4BC1F8C030854216D13B4C01A8257085
:1030A800FFF720F900250646384FAE4213D100201D
:1030B80023783249D1F89020C2F30722934254DB97
:1030C800FFF75CFF00202FE0616801EB0011FFF7BC
:1030D8006DFE0130DFE70199280101EB0513DA687D
:1030E8003A40B2F5001F21D0B2F5800F2BD0B2F5CF
:1030F800801F38D15A689B680958013B22F01F008D
:1031080003440120844623F01F0340EA4C10CDE914
:1031180002218DF8100002A920780593FFF760FEC0
:1031280000281DDA6FF0150007B0F0BD5A689B68DB
:103138000958013B22F01F0003444FF0020C012004
:1031480023F01F03E1E75A689B680958013B22F006
:103158001F0003444FF0000C062023F01F03D4E7A0
:1031680023780133237001359FE7C1F89830C1F8FF
:10317800A00001339EE74FF0FF30D5E700ED00E0F7
:10318800908F0000AAFF44008D1300200000F0FF7C
:10319800F0B587B007460E4614460021102268464F
:1031A8001D4605F023FC02238DF80230054B2A4604
:1031B80021466846CDE90476019303F0D7FD07B0B0
:1031C800F0BD00BF297F000008B5024B1B68984777
:1031D800002008BD34100020034B044A186093787F
:1031E80043F0020393707047341000200001002060
:1031F80008B50649064821F00701C1F1005202F559
:10320800E02204F0ADF8002008BD00BFDF2B00204D
:103218003810002000F01F0240090DD001280DD100
:10322800094B03EB8203D3F8002222F0E04242EA82
:103238000171C3F800127047044BF2E70023803293
:1032480053F82230FFDE00BF002884500025845048
:1032580038B50124134B144DC3F80045022303214C
:10326800C5F8D0360020FFF7D5FF20460321FFF729
:10327800D1FFC5F804472146C5F804492120C5F8FF
:10328800004BFFF7C7FF21462020FFF7C3FF214669
:103298000B20FFF7BFFF21460A20FFF7BBFF0020E6
:1032A80038BD00BF001000500040005007B50DF1B8
:1032B800070001F099FB114B98421CD14FF4806232
:1032C8000F4B1049C3F8B8254FF40062C3F83C25EA
:1032D8009DF8070004F09EFF0B499DF8070004F0D5
:1032E80094FF01209DF80730984001F077FB0020FB
:1032F80003B05DF804FB6FF00B00F9E70000AD0BBD
:1033080000A002502CA0025028A10250052370B53D
:10331800144D154E2C780134B4FBF3F303EB8303FF
:10332800E41A04F060FF114A137823B156F82430E8
:10333800C01A072814D94FF05023D3F8141141B1FB
:103348000021C3F81411D3F814312C700CB90123DF
:1033580013702C7804F047FF46F82400012070BD54
:103368000020FCE78F130020441000208E1300205B
:1033780048B1054B054A1B68B3FBF2F35843044BAD
:1033880043F00103184770471001002040420F0026
:10339800D08E00000149024804F051BBB88F0000EC
:1033A800581000204FF47F032DE9F041D3F8302165
:1033B8000646072A0D46D3F8343120D1023B032BA9
:1033C80002D8124AD35CD3B14FF050244FF0010811
:1033D80000270520C4F81886C4F8147604F013FFF3
:1033E8004046C4F8148604F00EFFC4F81476C4F8F6
:1033F800187630462B46BDE8F041002118474FF0BB
:1034080050230022C3F81426F3E700BFBB9800003E
:103418000122054BC3F8002590F88E1009B1DA6037
:1034280070471A605A60704700E000502DE9F0417B
:103438000E798D7906F01F03072B20D80C780C2CF9
:1034480018D8DFE804F00808081707170F1717112E
:103458001317150003244A78032A14D0042A20D00D
:10346800434A08E00424F6E70524F4E70624F2E7D3
:103478000724F0E73F4A01213F4804F00EFC6FF0B3
:103488001500BDE8F081012044F20A074A88BA42D3
:103498005AD843F6FE77BA4205D8002A62D0374A8E
:1034A800E9E70020F0E7A2F57F523F3A0B2AF6D869
:1034B80001A757F822F000BF75350000A7340000B7
:1034C800A7340000A7340000F1340000A73400003E
:1034D8004D350000A7340000A7340000A7340000D1
:1034E800A73400006D35000000224FF0010816F0E7
:1034F800200618BF4646224F08FA03FE97F8B0C0C8
:103508005FFA8EFE4FEA003014BF2CEA0E0C4CEA2C
:103518000E0C40EA042087F8B0C040EA02401A01C5
:10352800497902F1A04202F5604240EA06501F4480
:1035380087F8A810C2F818050020C2F81005C2F8CC
:1035480014559EE70122D0E744F21407BA420BD083
:1035580044F22807BA4209D044F20F07BA429ED172
:103568000322C2E70222C0E70422BEE70522BCE725
:10357800DE980000BF980000548E000002990000F9
:1035880000000020F7B546680546731EFE2B05D9D6
:10359800614A0121614804F080FB12E000231A46C9
:1035A8005F48604F26FA03F111F0010130D017F897
:1035B80003C0BCF1000F08D15B4A0121574804F051
:1035C80075FB6FF0150003B0F0BD6C7C00EB031EBB
:1035D800003C18BF0124DEF81815013221F0807173
:1035E80041EA0461CEF8181503F15101090140F8C8
:1035F80001C0D2B20133082BD4D12B7CA3F108012E
:1036080006291ED8DFE801F01F1D211D111D1B0012
:1036180000EB031CDCF8184524F08074CCF818453E
:1036280003F1510424010151E4E702233C49012A32
:10363800C1F8F0356B7C0AD95BB13C4AA9E7032392
:10364800F4E73B4AB9E70023F0E70123EEE7082B4C
:1036580010D8C1F8F4352B6851006BB9EB688B4270
:103668000ED22E480091334A012104F029FB6FF055
:103678000B00A8E7304AA0E79B8903FB0111EDE79F
:103688002F46A968264B2D4CC3F82C1604F17C064E
:10369800C3F830260FCF0FC63B6827463360002695
:1036A80026672B6893B30FCB04F1900585E80F00CC
:1036B800E567A4F8A06048B3D7E8EF3FC7E8E26F32
:1036C800002AF9D11E494FF400400F463146D4F87C
:1036D80090500023E5FB00711A4A3846FDF72EF991
:1036E8000022CDE90001002304F1080002F06EFF7A
:1036F80094F8783073B94FF0FF324FF0FF33124827
:1037080002F09CF900B12067206F5CE70B48FFF7D7
:103718007FFEEDE7002056E72D990000548E00004B
:1037280000E00050A80000204B9900008A99000092
:1037380065990000DF990000BC9900000000002096
:103748003F420F0040420F005800002070B50C4661
:1037580016464FF0FF324FF0FF330A4802F06EF979
:103768000123094D204685F878306E67FFF70AFF78
:1037780095F87830044603B110B1024802F02AF9EE
:10378800204670BD400000200000002038B50C46DF
:103798004FF0FF324FF0FF330A4802F04FF9002391
:1037A800094D204685F878306B67FFF7EBFE95F8F2
:1037B8007830044603B110B1024802F00BF92046F4
:1037C80038BD00BF400000200000002038B50025AB
:1037D8000F4C0E20C4F80451D4F80431C4F8105129
:1037E800D4F810311223C4F80433FFF715FA2A4627
:1037F80001210E20FFF72CFA0648836C13B94030DC
:1038080002F0E8F80123C4F80035002038BD00BFF5
:1038180000E0005000000020F8B5404BD3F8042128
:10382800002A6ED00021C3F80411D3F80421012224
:103838003B4C9A60C3F80015D4F8806094F8B070D7
:10384800254637420FD1E36F0BBB94F87830002B35
:1038580055D0606F10B1002102F04AFF3148BDE831
:10386800F84002F0B7B8D3F82C161346F6B21E4249
:1038780008D01F4205D0B1F90020002ABCBF0022A1
:103888000A8002315B009BB29F42F0D2DBE7D4F89A
:103898009430B4F8A0202BB123499847012814D0BC
:1038A800022824D0B4F8A030B4F89C209A421ED93B
:1038B8000133A4F8A030194BD3F82C26D3F83416CA
:1038C80089B202EB4102C3F82C26D4F8903023B910
:1038D800BDE8F8401248FFF79BBDD5E8EF3F5A1EF8
:1038E800C5E8E12F0029F8D1012BF1DCF8BDD4F8A7
:1038F8009030002BA9D00D4804F003FFA5E70C4831
:10390800ADE7D3F810110029F0D0C3F81021D3F88F
:10391800102101229A601A605A60E7E700E000501F
:1039280000000020400000207C000020080000204B
:1039380058000020084B70B5C31A0D4607499B1064
:10394800044659434022064804F019FB2B46014619
:103958002046BDE87040184788100020B76DDBB6D8
:103968006C8B0000402373B50B4C0093041B0B4673
:103978000D460A49A41061430646094A094804F05D
:1039880029FB011E05DA30462B4602B0BDE870401F
:10399800184702B070BD00BF88100020B76DDBB6B5
:1039A800458000006C8B000010B5EFF311842023D4
:1039B80083F31288BFF36F8F074A136823F002015D
:1039C800DB07116002D4012004F030FC84F3118875
:1039D800BFF36F8F10BD00BF281100202DE9F843F9
:1039E8000022012106460520FFF732F9114801F0AF
:1039F8007BF8114B984219D101F086F800244FF05A
:103A08001C090C27DFF834803569414609FB04504E
:103A180004F015F8002807DB012307FB04551C44B4
:103A2800042CAB67F0D10020BDE8F8836FF00400E8
:103A3800FAE700BF493B00000000AD0BC48F00004F
:103A48007FB500220123CDE9022304ABCDE904337D
:103A5800094A6B46CDF800D0CDF804D004F0E7FA57
:103A6800002805DB4FF480420023684601F0E6FF9A
:103A780007B05DF804FB00BF7B8000000C22104BF0
:103A8800014602FB0033002030B4D3E91C5218670A
:103A9800EFF31180202484F31288BFF36F8F9C6F9B
:103AA80004F0C00444F002049C6780F31188BFF35B
:103AB8006F8F1DB12B4630BC0248184730BC704789
:103AC800881000206C8B000010B4EFF311822023C3
:103AD80083F31288BFF36F8F1748016841F002041F
:103AE8000460C80707D482F31188BFF36F8F0120E1
:103AF80010BC01F021B84FF05021D1F80C04D1F8D6
:103B08000C14C907EFD5EFF3118083F31288BFF3C4
:103B18006F8F0A498B6F03F0C00343F002038B6772
:103B280080F31188BFF36F8F82F31188BFF36F8F13
:103B3800002010BCFFF7A2BF281100208810002029
:103B4800092813D8DFE800F0051012121212121219
:103B58000E0C074B986F10F0070007D1FFF78EBFC8
:103B68000220FBE70320F9E70120F7E7704700BFD1
:103B7800881000202DE9F041012207463649D1E896
:103B8800EF3FC1E8E02F0028F9D133B93349344871
:103B98004B60CB608A6003F065FF7B1E012B2BD83E
:103BA800012F07D14FF05023D3F81C3403F003033F
:103BB800022B21D004F07AFC0546F8B9294B1B7872
:103BC800E3B14FF0502302220646C3F808234FF012
:103BD8005024DFF89480D4F81824D4F81834D20389
:103BE80015D503F00303022B01D0012F0FD16DB3BC
:103BF80086F31188BFF36F8FBDE8F081EFF311866C
:103C0800202383F31288BFF36F8F0125DFE7C5B147
:103C1800304604F047F9D4F81835DBB2012BDAD175
:103C2800D4F80421002AD6D00022C4F80421D4F8FC
:103C380004210222C4F818252022C8F88021A36094
:103C4800C9E70021212004F0D5FCE4E74FF0502318
:103C58000222C3F80423CFE7841000207410002048
:103C6800A41000209213002000E100E008B50748E6
:103C780004F063FB38B10648FFF7AEFA0448FDF7D5
:103C8800ADFC002008BD6FF01200FBE7A88B000018
:103C98009D3C00000A2838B50446074D04D1AB689E
:103CA8000D2128465B689847AB6803485B68E1B21A
:103CB8009847204638BD00BFA88B0000F0B5406883
:103CC80001F01F04057B87B044EA45140569002DFF
:103CD80063D0B2F5001F00F1100506D12146284631
:103CE80004F024FB002007B0F0BD0027B2F5800FD8
:103CF80001AE0197776039D1B3F1007F14BF052376
:103D080004238DF804300023CDE90463039383680A
:103D180023FA01F111F001011AD1B2F1A07F17D1F4
:103D280004F01F03620903F180032AD0012A3AD163
:103D38001E4A52F82330DB070AD40DF10306324637
:103D48002146284601F0FEF9194B98421BD00296ED
:103D58002146284603AA01F0B1F8164B98421FD114
:103D680001222146284601F04FFABBE7B3F1C06FA4
:103D780005D0B3F1007F14BF01230223C1E7032359
:103D8800BFE70D4AD5E73146284601F037FA094B17
:103D98009842DCD06FF00B00A5E76FF08500A2E732
:103DA8006FF015009FE751F82330FFDE002884509C
:103DB8000400AD0B0000AD0B0025845038B54568F4
:103DC8002B69B3B11035284601F008FA044680B9CA
:103DD8000146284601F0D0F9084B98420BD12246FB
:103DE8002846074901F0A8F9224605210D20FEF7CB
:103DF8002FFF002038BD6FF00400FBE70000AD0B7B
:103E08000D3E00004209034670B502D0012A17D0C2
:103E180070BD0D4E326951680029F9D0012503F0B3
:103E28001F030C689D400029F2D08A682A4002D0FE
:103E380030464B6898472CB1236821461C46F2E768
:103E4800024EE7E72346F8E7948B0000808B0000DA
:103E58002DE9F04340F206354668D00648BF0320F6
:103E6800337B02EA050558BFC2F3401087B001F062
:103E78001F07B5F5837F144647EA43178DF80300FB
:103E880044D00FD8062D18D007D8B5B1022D3FD091
:103E98006FF0150007B0BDE8F083B5F5807FF7D166
:103EA80001250AE040F20222954233D0B5F5407F61
:103EB80032D0B5F5007FEBD102250123220303FAA6
:103EC80001F12BD573689960326972BB07F01F0343
:103ED8007F0928D0012F75D13C4A02EB830284F474
:103EE8008033D2F80012C3F30043C4F3404444EAD9
:103EF800430421F4706144EA800421F00F0144EA8C
:103F080005230B43C2F800320020C3E70725D4E796
:103F18000425D2E70525D0E70325CEE7630344BF90
:103F28007368D960D0E72A4AD7E710363946304651
:103F38000DF1020201F006F914F4403F80460CD15D
:103F48003946304604F0F0F9224B9845DCD130462A
:103F58009DF8021001F04CF9D6E74FF0000901ABCB
:103F68003946304603AACDE90439CDE90199CDF89F
:103F78000C9000F0A3FF174B984289D114F400333A
:103F880015D09DF8033084F48034C4F300448DF8D0
:103F98000E3039464B46304603AA8DF80C508DF842
:103FA8000D4001F047F80B4B9842CDD070E7CDE9B2
:103FB800043339460DF10303304603AA039300F096
:103FC8007DFFF0E7803352F82330FFDE002884506D
:103FD800002584500000AD0B036803F01F025B0945
:103FE800026004D0012B034818BF00207047024824
:103FF800704700BF00288450002584502DE9F04FF9
:104008001546834640F2FF18DFF88891DFF888A14B
:1040180085B000EB8101594503D1002005B0BDE80A
:10402800F08FDBF80030C3F3C322082AC3F3080477
:1040380000F2AA801B0E444508BF4FF0FF3419F860
:104048000270222B00F2A380DFE803F012191F226E
:10405800252B22A1A1A1A13A67A1A1A1A1A1A1A15A
:10406800A1A16A7F8285A1A1A1888F9295989B00C2
:10407800C5F80C45601C5DD10BF1040BCBE7C5F806
:104088001445621CF8D000265DE0C5F80845F1E744
:10409800C5F81045F5E7631CC5F80845ECD00026BF
:1040A80004E0661CC5F80C45E6D0012603A8039475
:1040B800FFF792FF0122039B02FA03F3C36008E0B3
:1040C800C5F80845002FDCD1631CD5D0002606278B
:1040D8003246DBF80030039403F40040002818BF90
:1040E800002203A818BF012601930092FFF774FF6E
:1040F800039C019B00EB8400D0F80042C3F3412CE1
:10410800009A3B0243EA8C03134304EA0A0423435C
:1041180043EA4603C0F80032AEE7C5F80C45D1E7DC
:10412800C5F86045601CDBF80030A5D0C3F3004338
:10413800002BBAD0012603A80394FFF74DFF039B79
:1041480006FA03F383603246C3E7C5F86445E9E736
:10415800C5F86845E6E7C5F86C45E3E7C5F82445C2
:10416800621C89D001260022B3E7C5F8284581E7FB
:10417800C5F83045F4E7C5F83445F1E7C5F83845E2
:10418800EEE7C5F83C4575E76FF0150046E76FF0B8
:10419800850043E76E9A0000F0F0FCFF2DE9F0413E
:1041A80004460D46476804F081F94FF0200888B9A5
:1041B800264B1B7873B16426606803F0D7FFF0B90B
:1041C800012004F020F8013EF6D10021212004F05E
:1041D80011FAF0E7EFF31186314688F31288BFF33E
:1041E8006F8F606803F0C2FFA8B986F31188BFF328
:1041F8006F8FEFE786F31188BFF36F8FE5E7EFF373
:104208001186314688F31288BFF36F8F606803F018
:10421800ADFF0028EED0FB6900201D706368FA69C5
:104228001B68C3F844250122C3F84825C3F82001B8
:10423800D3F82041C3F85801D3F858019A6081F3A4
:104248001188BFF36F8FBDE8F08100BF9213002083
:10425800F7B50546002201210820FEF7F9FC0820E1
:10426800FEF7DAFC6B681A691868C0F82425997D8E
:104278005A7D0A43198B1B7D0B431343C0F86C35D9
:104288006E68D6E9004313F0010350D02F6907F197
:10429800080000F0A9FB334B984208D032480121AE
:1042A800324A03F0FAFC6FF0040003B0F0BD387A2C
:1042B80004F10C0204F5907103F0B1FF387A01277C
:1042C80007FA00F000F08AFB0823C4F80035F36908
:1042D800C4F844350023C4F84835A760D4F85831E9
:1042E800002BFBD00021C4F800156B6801AADC681C
:1042F800204603F00EFF002805DB019B2268197990
:104308001868FFF77BFE08216A681368C3F8001570
:10431800117A51B9126AC3F834250122C3F8382535
:10432800C3F81011D3F810111A600020BDE7082255
:10433800C4F80025F269C4F84425C4F848350123B7
:10434800A360D4F82031002BFBD00023C4F820311F
:10435800D4F820310123E3604FF48073C4F80433A8
:10436800BCE700BF0000AD0B9C8E0000779A0000F0
:104378000123834070B5DC430B4AD2E8EF1F01EA02
:104388000405C2E8E65F002EF7D14FF48032824080
:104398000648C0F80823BFF35F8FBFF36F8F0B4247
:1043A80014BF0120002070BD54110020005001509E
:1043B80070B40E4922F07F46D1E90034D01AC318F0
:1043C80044F10004C1E90034A6F50013B3F5400F29
:1043D80009D2074B1B681A0A1B069C19054B42F1A8
:1043E8000005C3E9004570BC02F00AB8280800209F
:1043F8005811002030080020D9B101230D4A83400C
:10440800D2E8EFCF4CEA030CC2E8E1CF0029F7D19C
:104418004FF48033084A8340C2F80433074BD3E88B
:10442800AF3FC340DB0742BF4FF40012044BC3F851
:1044380000217047541100200050015050110020F5
:1044480000E100E00D4B1868010A0006BFF35F8F1A
:104458000B4BD3F80435181841F10001B3F5801F50
:104468000AD2084BD3E90023904271EB030303D22D
:1044780010F1807041F10001704700BF5811002011
:1044880000500150300800202DE9F04F85B0164645
:104498001F4604469DF840A0FFF76AFF0190FFF70A
:1044A800D1FFB04271EB070352D23B4B301A67EB96
:1044B8000101984271F100014DD2384B03EB04130E
:1044C800D3E902239F4208BF964258D04FF4803860
:1044D800334908FA04F8204626F07F4BC1F8488390
:1044E80003F075FE4FF00309584604F15005AD007E
:1044F800ADB205F1502504F5A87305F58035029392
:10450800029A20F07F4341F82230C1F84483D1F861
:104518000435244AC01A033820F07F4090422ED92F
:10452800286868B1D1F80435A3EB0B0020F07F4070
:10453800B0F5000F039322D9204603F048FE039BF1
:10454800BAF1000F07D109EB030009F10109D7E718
:10455800BAF1000F09D06FF0150520460199FFF751
:104568004BFF284605B0BDE8F08F01230E4AA34053
:10457800D2E8EF0F1843C2E8E10F0029F8D1074944
:104588000E982301C8500F9B01EB04120025C2E9C5
:1045980002675360E1E700BF0100800018080020AF
:1045A80000500150FDFF7F00501100207FB500250D
:1045B8004FF0FF304FF0FF31194C1A4B0226C4F868
:1045C8000833C4F84833184BC4F80855C3E9020146
:1045D8004FF480334FF40012C4F80433134B012115
:1045E800C4F804631520C3F880212A46FEF730FB7F
:1045F8001520FEF711FB01230D4AA3602360136009
:104608000C4B0D4A009328460023CDE90155FFF7CE
:104618003BFF3046FFF7AEFA284604B070BD00BF36
:104628000050015003000F001808002000E100E0CE
:1046380054110020B9430000FFFF7F002DE9F74324
:104648002E4BD3F8042390070BD5D3F8042142B19D
:104658000022C3F804212A4AD3F80431136801332D
:104668001360264AD2F80433D90326D5254BD3E85C
:10467800EF1F21F00100C3E8E40F002CF7D1CB07AE
:1046880002D4D2F84031C3B100251C4CC4F84051C3
:10469800D4F84031FFF7D6FEEFF31182202383F3DD
:1046A8001288BFF36F8F184BD3E90267B042B94144
:1046B80006D282F31188BFF36F8F03B0BDE8F08391
:1046C8004FF0FF38D3E900104FF0FF391D60C3E900
:1046D80002894FF48033C4F84833C4F84051D4F801
:1046E800403182F31188BFF36F8F0029E5D0009025
:1046F80032463B4628468847DFE700BF0050015056
:1047080058110020501100201808002030B5431C13
:10471800124C85B005D08442A8BF0446012CB8BF0E
:104728000124FFF78FFE0E4B0C4DD3E90013401AFE
:10473800B0F5000F0FD22218AA4228BF2A4600203F
:1047480052180849CDE90100009143F10003FFF731
:104758009BFE05B030BD2A46F1E700BFFFFF7F0092
:1047680028080020B943000008B5FFF76BFE024B8C
:104778001B68C01A08BD00BF280800204FF47F033B
:10478800D3F83021D3F83431072A05D1023B032B63
:1047980002D8024AD05C704700207047B89A0000DF
:1047A80008B5FFF7EBFF58B1644BD3F8202A3AB9A4
:1047B8000D21C3F8201A0121C3F81C19C3F81C29BC
:1047C8000022D30003F57F03D3F80013013107D08B
:1047D800D3F800130132D3F80433202A0B60F0D148
:1047E800FFF7CCFF002840F0A080FFF7C7FF40B1DB
:1047F800534B544AC3F830254FF050230122C3F8D5
:1048080058254FF47F03D3F83021D3F83431072AE1
:1048180009D1023B032B06D84B4AD35C1BB10022BB
:104828004A4BC3F84C25FFF7A9FF50B14FF050236E
:10483800D3F80024D10742BF0022C3F81421C3F8DB
:1048480018214FF47F03D3F83021D3F83431072AE5
:1048580009D14FF05023D3F80024D20744BF6FF09A
:104868000102C3F80024FFF789FF18B16522334B12
:10487800C3F80C274FF47F03D3F83021D3F8343131
:10488800072A16D1314BD3F82034002B11DA4FF018
:1048980050230322C3F8182501229A60D3F8042173
:1048A800002AFBD00022C3F804210122DA60C3F8F1
:1048B80018254FF47F03D3F83021D3F83431072A71
:1048C80023D1023B032B02D8214AD35CEBB17E22D1
:1048D8001A4B1B49C3F80C27C3F83C297F231D4AF0
:1048E800C2F818310023C1F8043EC1F8083E01F5AA
:1048F8004821C1F81031C2F82431C2F82C3102F530
:10490800FF1202F58052C2F8A032134AD2F88C3056
:1049180043F44063C2F88C30104A114B1168C3F855
:104928004415D269C3F84C2508BD2922034BC3F8A6
:104938000C270322C3F83C2757E700BF004000506C
:10494800009003504400EFBEB49A000000200350CA
:10495800B09A00000020005000ED00E00080FF0049
:104968000060005030B50468ACB1B4FA84F3012299
:10497800C3F11F03DBB29A4024EA0202D0E8EF5FDA
:10498800A54204D1C0E8EC2FBCF1000FF6D1EAD162
:1049980002480B7030BD0248FCE700BF0000AD0BB9
:1049A8000200AD0B10B50368CB40DB0710D4012320
:1049B8008B40026843EA0201D0E8EF4F944204D1E9
:1049C800C0E8EC1FBCF1000FF6D1F2D1014810BDD0
:1049D8000148FCE70000AD0B0400AD0B014BC3F828
:1049E80004057047007001500146014800F044B9C1
:1049F800140100200328F7B506462ED84FF05021A1
:104A0800364B374A33F81000925DC1F80803002589
:104A18000A44012142F210744FF05027314B1160C3
:104A280033F816308E4203F150231D601B688DF851
:104A3800071008BF0DF10705022E32D0032E40D013
:104A4800012E1CD0D7F8183403F480333DB923B1B4
:104A5800012003F0D8FB013CF0D103B0F0BDD7F83A
:104A6800182402F003022A70002BF6D09DF80700E4
:104A78000128F2D103F0C7FB013CDDD1EDE7D7F8FF
:104A88000C3403F480333DB9002BE6D0012003F049
:104A9800BAFB013CF3D1E0E7D7F80C2402F001029D
:104AA800E1E7D7F85C3403F480333DB9002BD4D068
:104AB800012003F0A8FB013CF3D1CEE7D7F85C2432
:104AC800ECE7D7F85434DB03C7D5002DCED101204D
:104AD80003F099FB013CF4D1BFE700BF3891000017
:104AE800BC9A000030910000044B1A7922B90122C7
:104AF80018601A7102487047024870475C1100201C
:104B08000000AD0B0C00AD0B08B50A4B1B6833B1A8
:104B18000520FEF78FF810B90520FEF77DF84FF055
:104B280050230122C3F81825C3F81425C3F880259B
:104B380008BD00BF5C11002010B5032845D8DFE888
:104B480000F01802554F00224FF480730121002015
:104B580003F1502318601C68012402F150221460EC
:104B6800284A1268002A47D04FF05023C3F804138C
:104B78002BE04FF05023D3F81814D3F81824C903A6
:104B880012D502F00303022B05D0012B02D000201E
:104B9800FFF730FF01234FF050220221C2F81835E9
:104BA80008224FF48273D2E7D3F81424D207F1D540
:104BB800D3F81C2402F00302013A012AE7D8114A6B
:104BC80012681AB10222C3F8042310BDD3F80421D5
:104BD800002AFBD00022C3F80421D3F80431F4E7FB
:104BE80018224FF490734FF48071B0E720224FF4ED
:104BF80092734FF40071AAE71A68002AFCD0186073
:104C08001B68E2E75C110020F8B54FF0502301253E
:104C18000026D3F80443174F04B9F8BDB4FA84F05A
:104C2800C0F11F00830003F580739BB203F150238A
:104C380005FA00F2196892B224EA02040029EBD0BE
:104C48001E601B684FF05023022AC3F808230DD1B9
:104C5800D3F81814D3F8181401F00301012905D169
:104C6800C3F81825C3F804239960D5E73B68C0B298
:104C78009847D1E75C1100200079024B03EB001044
:104C8800FFF770BE1C010020036803F01F025B09D8
:104C9800026004D0012B034818BF00207047024867
:104CA800704700BF0028845000258450034A4309F8
:104CB800D35C00F01F001844C0B27047C09A0000CF
:104CC80070B50546FFF7F2FF0C4C083034F8103089
:104CD8000E46DA0508D5C3F3432304EBC30228467E
:104CE80054F8333052689847A3682BB131462846A8
:104CF800E268BDE87040184770BD00BF2C01002075
:104D080008B5FFF7D3FF034B083033F81000400B0A
:104D180008BD00BF2C01002008B5FFF7C7FF034BF3
:104D2800083033F81000C0F3400008BD2C01002003
:104D380008B5FFF7BBFF034B083033F81000C0F38A
:104D4800401008BD2C010020034611F0010010B5E9
:104D5800CCB20BD1A207C4F340000DD5074A106AA4
:104D680058601062003818BF012005E004490A6A3B
:104D78001A600A62002AEDD010BD00BF00288450D6
:104D88000025845010B5FFF791FF124A083032F819
:104D98001030D9051CD5C3F3432123F4F85322F866
:104DA8001030002002F10E0434F8023F13F4807F23
:104DB80003D0C3F3432399420AD001303028F3D1FA
:104DC800002342F831300448BDE81040FFF7EABD3F
:104DD80010BD00BF2C010020A4010020F0B505463D
:104DE80000200126044607468C420BD1114BD3F80C
:104DF8007C2132B10022C3F87C21D3F87C3140F009
:104E08000040F0BDE3B29B0003F580729B0806FAF0
:104E180003F31D420BD002F1A04202F55042D2F832
:104E280000C0BCF1000F02D01760126818430134AB
:104E3800DAE700BF00D00050F7B506460846FFF78E
:104E480035FF1A4F00F1080537F815300C46DB0717
:104E58002AD5304603F044FA2046FFF769FF58B1D7
:104E68002046FFF74DFF0022316800B201EB8003B6
:104E7800C3F81025C3F810252046FFF783FF002349
:104E880001A827F815300194FFF7FEFE019B00EBFF
:104E98008300D0F80022064B134043F00203C0F809
:104EA8000032044803B0F0BD0348FBE72C010020A2
:104EB800F0F0FCFF0000AD0B0400AD0B2DE9F04352
:104EC8001646804685B00846FFF7F0FE0D46316865
:104ED800044609B32846FFF71FFF18B12846FFF715
:104EE80027FF10BB00230DF10F02CDE900338DF829
:104EF8000E308DF80F3028460B460DF10E0103F0E9
:104F080097F9484A04F1080132F8113023F00203F6
:104F180043F0010322F8113073687BB328461F78E9
:104F28005968FFF7F9FE10B1E9B13F4829E03D4A59
:104F380004F1080032F8103023F02003DB04DB0C06
:104F480022F8103079B1032FEFD87168D1F804E056
:104F5800D8F800109EF800C001EB8C01A7B9C1F881
:104F68001075C1F810752F4A04F1080132F8113094
:104F780023F01C0343EA870322F81130B3683BBBD4
:104F88002A4805B0BDE8F083D1F810E543EA4C3370
:104F98002EF0030EC1F810E5D8F8001043F02003F6
:104FA80001EB8C0EDEF8101522F8103021F44F3189
:104FB80021F44071CEF810152902DEF8108501F4AD
:104FC8007C5141EA074141EA0801CEF81015CAE7C9
:104FD8002846D3E90067FFF7D5FE002ED0D0114D43
:104FE800D5E90023964203D19F4201D1002209E06E
:104FF8000F480DF10F01FFF7B5FC0C4B9842C0D1DB
:105008009DF80F2005EBC20308345F6035F81430B3
:1050180045F8326043EA422343F4807325F814309C
:10502800AEE700BF2C0100200400AD0B0000AD0B63
:10503800A40100202DE9F0430C46804685B02046A7
:1050480011461D46FFF732FE064629B32046FFF7F4
:1050580063FE18B92046FFF76BFE18BB334F06F105
:10506800080937F8193013F01C0F02D04B78012BC0
:1050780018D001238DF80F3000234A1CCDE9001306
:1050880020468B1C0DF10F0103F0D2F837F81930C8
:1050980043F0030327F81930002D44D02046FFF7CA
:1050A8003BFE18B9224805B0BDE8F083002295F808
:1050B80000C0D8F800301D4F03EB8C03C3F810254F
:1050C800C3F8102506F1080237F812104FEA8C0EC3
:1050D80021F02001C904C90C27F812106E7816B304
:1050E800D8F80000AD787044D0F81035360423F4B1
:1050F800991323F4F853C0F81035230203F47C53B2
:1051080006F440362D05D0F810E5334305F4801534
:105118002B4341EA4C3143EA0E0341F02001C0F829
:10512800103527F812100348BDE700BF2C010020F6
:105138000400AD0B0000AD0B014BC3E90212704730
:105148002C01002010B508461446FFF7F1FD50B1B8
:105158000846FFF7ABFD054B083033F8103004481C
:105168005B0B237010BD0348FCE700BF2C01002037
:105178000000AD0B0400AD0B70B5154D064695F853
:1051880080401CBB2146602205F1100003F02EFC74
:10519800214630682E6F8E420ED10023C0F87C3134
:1051A800D0F87C3140F30730FDF736FD012309487C
:1051B80085F88030AB6770BDCBB29B0003F5807279
:1051C8007C2B04BF845083580131E4E70248F2E79E
:1051D8002C0100200000AD0B0C00AD0B034B93F825
:1051E8008000003818BF0120704700BF2C01002044
:1051F8000148FFF7D7BB00BFA00100200148FFF717
:10520800B1BB00BFA001002073B503681646D3F8F0
:1052180004230546002AA8BF4FF000420846A8BF4D
:10522800C3F804230C46FFF783FD00B30846FFF7D5
:1052380073FD0146D8B92046FFF762FD04B2A40009
:105248000346286804F580728150296882582144F1
:10525800D1F8102542F00102C1F810252EB1012223
:10526800296802FA03F3C1F8043302B070BD20467E
:10527800FFF71CFD0E4B083033F81030C3F38203E0
:10528800042B11D0052B11D001A80194FFF7FCFCC9
:10529800019A0369D34003F00103991C204602B028
:1052A800BDE8704003F00DB80321F7E70221F5E7E8
:1052B8002C0100202DE9F04F684BDFF8A481D3F8CA
:1052C8000403D8F87010C0B289B040F00040FFF76E
:1052D80085FD051E2FDAC24600235AF87C1F06A852
:1052E800CDE90633FFF730FD4FF0000B5D4B0DF1B4
:1052F80018090193019A12F8013B0192DA081AF889
:10530800022003F0070322FA03F3DA071CD409F199
:105318000409BBF1000F14D0D8F870104FF000400A
:10532800FFF75CFDD8F87C1006A8FFF70DFD0028F4
:10533800DAD125F000450124002D76D109B0BDE869
:10534800F08F4FF0010BD5E7474B5B440293D9F838
:1053580000100029DBD091FAA1F1B1FA81F1029B8A
:105368001C7841EA44142046FFF7A0FC083038F8BE
:105378001070C808BB080393012319F8002001F036
:10538800070103FA01F122EA010209F8002005A841
:105398000594FFF779FC059A039B803250F8222088
:1053A800C7F382065B073746C2F3014222D520467F
:1053B8003946D6B2FFF784FC05A80594FFF764FCCC
:1053C800059B803350F82330C3F301439E4207D135
:1053D8000021204602F075FF3146204602F071FF99
:1053E80005A80594FFF750FC0122059B02FA03F378
:1053F8000362ACE7022A0CD10321204602F061FFC8
:1054080006F00503012BEBD139462046FFF758FC7F
:10541800E6E702212046039202F053FF032EF3D061
:10542800039A032ADCD1022EEDE795FAA5F3B3FA25
:1054380083F304FA03F29B0003F1A04303F55043FE
:10544800D3F81005D3F81015C0F30520C1F30141B6
:1054580025EA0205FFF734FC6EE700BF00D00050D4
:105468002C010020D09A0000D09A000010B5044604
:10547800FCF796FB03480121034A02F00EFC204684
:1054880002F066FF8C8E0000D29A00002DE9F843E6
:1054980004460D4600AFEFF31188202383F31288EA
:1054A800BFF36F8F0428294A98BF294BE9468AB071
:1054B8009668117C98BF53F820306A4688BF254B00
:1054C800C2E9073140F2013323489384234BC2E9F0
:1054D800050442F8103F00234FF431512048FCF7EF
:1054E80043FCCD4645B1EB69C3F3080323B1012161
:1054F8001C4A1B4802F0D1FB2EB1304602F0DFFFF8
:1055080008B1037803B91848E9468AB06A46174BC8
:10551800D061C2E9053640F201331384144B42F8D6
:10552800103F00234FF411510D48FCF71DFC29468C
:10553800CD462046FFF79AFF88F31188BFF36F8F97
:105548003046FDF70DFBBD46BDE8F8836411002029
:1055580078900000E19A0000F79A00000500000129
:105568008C8E00001F9B0000EF9A0000409B0000FB
:105578000400000138B5094B53F82040013053F8B6
:105588002050A54200D838BD636823B1204602F0F8
:10559800E7FE0834F5E723689847FAE78C9000009F
:1055A800012270B52A4B032086B01A70FFF7E2FF7C
:1055B800FCF79EFE02F0F0FE0420FFF7DBFF254C0F
:1055C800254D2646AE4204F1300410D300F038FCD5
:1055D800204C224EAC4226D300F046FCFBF7B0FB31
:1055E8001F4A137B23F00103137306B070BD54F8F0
:1055F8000C3C059354F8103C049354F8143C039362
:1056080054F8183C029354F81C3C019354F8203C7D
:10561800009354E90A2354E90C0100F035FA54F8D0
:10562800303C5E65CDE7D4E90A23B3F1FF3F08BFFC
:10563800B2F1FF3F05D052EA0301206803D100F020
:10564800D3FC3034C6E73146183000F063FEF8E783
:1056580092130020F88D0000F88D0000B985000035
:10566800B808002008B50348034A0021121A02F0BE
:105678008FFE08BDD80200209413002000230122C9
:1056880070B586B0CDE904230F220193CDE902322B
:1056980014234FF4A0720E4D0E4E03FB00550E4915
:1056A80006EBC016044602FB00110C4B3046009571
:1056B80000F0EAF9737B2C7423F004037373084B2E
:1056C800013403EBC423EE606B6006B070BD00BF0D
:1056D800641100203808002098220020618400000E
:1056E800981A0020BFB50020FFF744FF2D4B03F5A3
:1056F800006282F3088883F30A880024E0232A4D95
:105708002A4E85F82230EC772C766C76AC7685F8C4
:1057180020406B6A264F43F4E0236B6285F82340F0
:10572800FDF79CF9FDF702FB4FF0FF33AB62EB622C
:10573800FDF7A0FCFDF71EFBFCF7A2F940F20112F1
:105748001C4B1D4D9A81B360C3E919441C6702F0D4
:10575800F3FD0120FFF70EFF0220FFF70BFF00F01B
:10576800B7FB164B75610593012315494FF4806209
:10577800CDE9034328463B46CDE90144009400F0B7
:1057880083F906466A7B284622F004026A7302F00F
:10579800D2FE2046FFF772FF3A4631462846FDF70B
:1057A800A5FA00BF981A002000ED00E0641100205F
:1057B800A955000038090020B8080020A29B000065
:1057C800D8230020002038B5054C064DAC4200D344
:1057D80038BD204602F0E1FD0028F9DB1C34F5E76E
:1057E800700200207002002073B50C46EFF311819F
:1057F800202585F31288BFF36F8FC5685DB12560DA
:105808002B68C360836901338361002081F31188A9
:10581800BFF36F8F11E052EA030603D16FF00B005C
:105828002560F3E7CDE900230246083000F068FA66
:1058380018B9034B9B685B69236002B070BD00BF59
:10584800641100202DE9F341044617461E46EFF384
:105858001188202383F31288BFF36F8FC368334AFC
:105868007BB180689168884219D057EA060318D13D
:1058780088F31188BFF36F8F6FF00F0002B0BDE897
:10588800F081916891F90E100133E360936821610A
:10589800A36088F31188BFF36F8F0020EEE72169BA
:1058A800F2E791F90E1090F90E306FF07E029942EE
:1058B800A8BF19469142B8BF11468B422DDD02F0B0
:1058C800D6FD054622464146CDE90076184800F047
:1058D80017FA0028E1D0EFF31186202383F312880A
:1058E800BFF36F8FA068D0B1236821699C420AD0AA
:1058F8004BB193F90E309942A8BF19466FF07E0359
:105908009942B8BF194602F0B2FD40B13146084885
:1059180000F070FA6FF00A00B0E70025D2E7002D1A
:10592800F4D186F31188BFF36F8FF3E76411002079
:1059380093130020F8B583680546002B3FD0234A0F
:10594800926893423ED1C368012B03D9013BC360DF
:105958000020F8BDEFF31187202383F31288BFF3EB
:105968006F8F0169806802F082FD2C68AC4207D114
:105978000023C5E9023387F31188BFF36F8FE7E788
:10598800002CF5D0D4E90032002613605A60637BFE
:10599800C4E9006623F002036373A66004F11800EB
:1059A80002F07CFEAC6094F90E3020462B61E6676D
:1059B80002F0C1FD3946064800F01CFAC8E76FF04E
:1059C8001500C6E74FF0FF30C3E700BF64110020A1
:1059D8009313002070B5EFF31186202383F3128808
:1059E800BFF36F8F0468A0421AD0CCB1D4E900325B
:1059F800002513605A60637BC4E9005523F0020355
:105A08006373A56004F1180002F048FE2046E567BC
:105A180002F091FD3146BDE87040074800F0EAB950
:105A2800D0E902329A4218BF013302218360103054
:105A380002F088FFEEE700BF9313002013B5EFF3E1
:105A48001181202484F31288BFF36F8F846844B1D6
:105A5800013C846081F31188BFF36F8F002002B08E
:105A680010BD52EA030406D181F31188BFF36F8F8A
:105A78006FF00F00F3E7CDE900230246014800F07C
:105A88003FF9ECE7931300202DE9F043984685B0E1
:105A980000F15803C0E91633109B00260373042352
:105AA800073222F0070543730F9B01EB05090F46E8
:105AB80083734946C0E906668660C6730446FCF7E8
:105AC80083FD0E9B073020F00700E066C4E91975D6
:105AD80002930D9BA9EB000901930C9B4A46009386
